{
  "contractName": "VaccineVerification",
  "abi": [
    {
      "inputs": [],
      "payable": false,
      "stateMutability": "nonpayable",
      "type": "constructor"
    },
    {
      "anonymous": false,
      "inputs": [
        {
          "indexed": false,
          "internalType": "string",
          "name": "returnedHash",
          "type": "string"
        }
      ],
      "name": "fileHash",
      "type": "event"
    },
    {
      "constant": true,
      "inputs": [
        {
          "internalType": "address",
          "name": "",
          "type": "address"
        }
      ],
      "name": "hashes",
      "outputs": [
        {
          "internalType": "string",
          "name": "",
          "type": "string"
        }
      ],
      "payable": false,
      "stateMutability": "view",
      "type": "function"
    },
    {
      "constant": false,
      "inputs": [
        {
          "internalType": "string",
          "name": "hash",
          "type": "string"
        },
        {
          "internalType": "address",
          "name": "user",
          "type": "address"
        }
      ],
      "name": "storeHash",
      "outputs": [],
      "payable": false,
      "stateMutability": "nonpayable",
      "type": "function"
    },
    {
      "constant": false,
      "inputs": [],
      "name": "getHash",
      "outputs": [
        {
          "internalType": "string",
          "name": "userHash",
          "type": "string"
        }
      ],
      "payable": true,
      "stateMutability": "payable",
      "type": "function"
    }
  ],
  "bytecode": "0x608060405234801561001057600080fd5b50600080546001600160a01b031916331790556104a0806100326000396000f3fe6080604052600436106100345760003560e01c806308e3399f14610039578063175a07e5146100e1578063d13319c4146101a1575b600080fd5b34801561004557600080fd5b5061006c6004803603602081101561005c57600080fd5b50356001600160a01b03166101a9565b6040805160208082528351818301528351919283929083019185019080838360005b838110156100a657818101518382015260200161008e565b50505050905090810190601f1680156100d35780820380516001836020036101000a031916815260200191505b509250505060405180910390f35b3480156100ed57600080fd5b5061019f6004803603604081101561010457600080fd5b81019060208101813564010000000081111561011f57600080fd5b82018360208201111561013157600080fd5b8035906020019184600183028401116401000000008311171561015357600080fd5b91908080601f016020809104026020016040519081016040528093929190818152602001838380828437600092019190915250929550505090356001600160a01b031691506102439050565b005b61006c610288565b60016020818152600092835260409283902080548451600294821615610100026000190190911693909304601f810183900483028401830190945283835291929083018282801561023b5780601f106102105761010080835404028352916020019161023b565b820191906000526020600020905b81548152906001019060200180831161021e57829003601f168201915b505050505081565b6000546001600160a01b0316331461025a57600080fd5b6001600160a01b03811660009081526001602090815260409091208351610283928501906103a9565b505050565b606034670de0b6b3a7640000146102d05760405162461bcd60e51b815260040180806020018281038252602a815260200180610442602a913960400191505060405180910390fd5b600080546040516001600160a01b03909116913480156108fc02929091818181858888f1935050505015801561030a573d6000803e3d6000fd5b503360009081526001602081815260409283902080548451600294821615610100026000190190911693909304601f810183900483028401830190945283835291929083018282801561039e5780601f106103735761010080835404028352916020019161039e565b820191906000526020600020905b81548152906001019060200180831161038157829003601f168201915b505050505090505b90565b828054600181600116156101000203166002900490600052602060002090601f016020900481019282601f106103ea57805160ff1916838001178555610417565b82800160010185558215610417579182015b828111156104175782518255916020019190600101906103fc565b50610423929150610427565b5090565b6103a691905b80821115610423576000815560010161042d56fe596f75206d75737420706179206f6e6520657468657220746f206163636573732074686520686173682ea265627a7a72315820d9c267b9c0eaca6994325fbbf08db68436c06ca32ce11860bf8207b72a63c91664736f6c63430005100032",
  "source": "pragma solidity >=0.4.22 <0.9.0;\n\ncontract VaccineVerification {\n    address payable owner;\n    mapping(address => string) public hashes;\n\n    event fileHash(string returnedHash);\n\n    constructor() public {\n        owner = msg.sender;\n    }\n\n    function storeHash(string memory hash, address user) public {\n        require(msg.sender == owner);\n        hashes[user] = hash;\n    }\n\n    function getHash() public payable returns (string memory userHash) {\n        require(\n            msg.value == 1 ether,\n            \"You must pay one ether to access the hash.\"\n        );\n        owner.transfer(msg.value);\n        return hashes[msg.sender];\n        // emit fileHash(hashes[msg.sender]);\n    }\n}\n",
  "sourcePath": "C:\\Users\\91790\\Desktop\\vaccine cerification\\contracts\\VaccineVerification.sol",
  "compiler": {
    "name": "solc",
    "version": "0.5.16+commit.9c3226ce.Emscripten.clang"
  },
  "schemaVersion": "3.4.7",
  "updatedAt": "2022-05-04T09:42:14.557Z",
  "networkType": "ethereum",
  "devdoc": {
    "methods": {}
  },
  "userdoc": {
    "methods": {}
  }
}